:1000000084020010CD000000C1000000C300000009
:1000100000000000000000000000000000000000E0
:10002000000000000000000000000000C50000000B
:100030000000000000000000C7000000C900000030
:10004000CB000000CB00000000000000CB0000004F
:10005000CB000000CB00000000000000000000000A
:10006000CB000000CB00000041040000CB000000EA
:10007000CB000000CB00000000000000CB0000001F
:100080000000000000000000000000000000000070
:100090000000000000000000000000000000000060
:1000A000CB000000CB000000CB000000CB00000024
:1000B000CB000000CB000000CB000000CB00000014
:1000C000FEE7FEE7FEE7FEE7FEE7FEE7002208B5F3
:1000D000094B0A49D3188B4204D209498958043282
:1000E0001960F5E7074B084A934202D2002204C385
:1000F000F9E700F055F8FEE70000001000000010DE
:10010000340600000000001084020010024B9A68C0
:100110009207FBD5D86170470080054038B5074C81
:1001200003115B00051C185BFFF7F0FF0F20284050
:100130004000005BFFF7EAFF38BDC046E405000061
:1001400080200D4B0001191DCA6F0243CA670121AF
:100150005A6800208A435A605A680A435A60042247
:10016000064B5A625860B420000518621A601A687B
:100170000A431A607047C046008004400080054072
:10018000002210B58C5C835C002C05D0002B05D0C0
:10019000A34203D10132F5E7012000E0002010BDA9
:1001A0000022F0B55A4B87B01A6100F0C3F8FFF790
:1001B000C7FFE120400200F0D3F8564800F050F9A4
:1001C000554800F033F9554800F030F9544800F034
:1001D0002DF90023002403AD5C5501330A2BF9D11E
:1001E00000F017F90028FBD000F01AF9291C285557
:1001F0004C48FFF7C5FF061E02D0062C08DD2DE097
:100200004948291CFFF7BCFF071E03D0012C27DC3F
:100210000134E5E74548291CFFF7B2FF061E13D05D
:10022000381CFFF773FF381CFFF770FF8026002093
:10023000FFF774FF0020FFF771FF013E0020FFF77A
:100240006DFF002EF3D1CBE7281C00F0EFF8301C37
:1002500000242C5401300A28FAD1C1E7002000E024
:10026000301C00242C5401300A28FAD1002600F05A
:10027000D0F80028FBD000F0D3F80D282DD00A28A4
:100280002BD0031C303BDBB2092B01D8AB55013618
:10029000031C413BDBB2052B03D8031C373BAB559A
:1002A0000136031C613BDBB2052B02D85738A85539
:1002B0000136062EDBD100235A00A818AA5C1C497F
:1002C0004078120109198218CA540133032BF3D163
:1002D0007E330334FF339C42C8D10020FFF716FF62
:1002E0000020FFF713FF124E351CAB1BA34200DBAF
:1002F0006FE7AB782F7868780193FFF70FFF381C12
:10030000FFF70CFF0198FFF709FF0335EDE7C04643
:1003100000000440E02E0000040600001406000067
:100320001A0600001D060000260600002A0600002E
:10033000000000108021074AD36F0B43D367064BA0
:10034000064AC9391A60FD2252421A61E02252005F
:10035000995070470480044000C000400400FFFF33
:10036000F7B51E4C0122231C082680211C4F943314
:1003700000901A603B1DDE67221DD36FC9010B433D
:10038000D3676368174DB343636063680099334371
:100390006360042314482B6000F092F8231CFF22B2
:1003A000F033013828621A601868296A1B68013026
:1003B000DB4301930C4B01315843009BF434594308
:1003C00000F07EF8019B0122181882231B01206097
:1003D000AB603E602B6813432B60F7BD0080044088
:1003E00000E100E000400640B0710B00024B9A684B
:1003F0005207FBD5D86170470040064038B5041C51
:100400004518AC4204D02078FFF7F0FF0134F8E73C
:1004100038BD024B986801231840704700400640E1
:10042000014B5869C0B270470040064010B5041C2B
:100430002078002803D00134FFF7D8FFF8E710BD7B
:100440000122054BD968114204D0DA60034A1368CF
:10045000013313607047C046004000408001001027
:1004600030B5802480250D4BE400191DCA6F22434E
:10047000CA675968A94359605A6880212A435A605B
:100480000022074B09061A60064B18601A680A43D7
:100490001A6001229A60044B1C6030BD0080044049
:1004A000800100100040004000E100E00022034B0A
:1004B0001A601A688242FCD37047C046800100105F
:1004C000002243088B4274D303098B425FD3030A93
:1004D0008B4244D3030B8B4228D3030C8B420DD3A6
:1004E000FF22090212BA030C8B4202D31212090234
:1004F00065D0030B8B4219D300E0090AC30B8B4272
:1005000001D3CB03C01A5241830B8B4201D38B031F
:10051000C01A5241430B8B4201D34B03C01A5241C4
:10052000030B8B4201D30B03C01A5241C30A8B4207
:1005300001D3CB02C01A5241830A8B4201D38B02F2
:10054000C01A5241430A8B4201D34B02C01A524196
:10055000030A8B4201D30B02C01A5241CDD2C30908
:100560008B4201D3CB01C01A524183098B4201D384
:100570008B01C01A524143098B4201D34B01C01A6F
:10058000524103098B4201D30B01C01A5241C308E7
:100590008B4201D3CB00C01A524183088B4201D356
:1005A0008B00C01A524143088B4201D34B00C01A42
:1005B0005241411A00D20146524110467047FFE7AE
:1005C00001B5002000F00CF802BDC0460029F7D0AC
:1005D00003B5FFF775FF0EBC4243891A1847C046A2
:1005E0007047C0462409260934093609A409A6091A
:1005F000B409B609240D260D340D360DA40DA60D33
:10060000B40DB60D49636869676F4C616D70205613
:1006100065722E00302E382E31000A0D004C4544F4
:100620004C414D5020004C4C20004C4C434C45411B
:040630005220000054
:04000003000000CD2C
:00000001FF
