:1000000084020010CD000000C1000000C300000009
:1000100000000000000000000000000000000000E0
:10002000000000000000000000000000C50000000B
:100030000000000000000000C7000000C900000030
:10004000CB000000CB00000000000000CB0000004F
:10005000CB000000CB00000000000000000000000A
:10006000CB000000CB00000091060000CB00000098
:10007000CB000000CB00000000000000CB0000001F
:100080000000000000000000000000000000000070
:100090000000000000000000000000000000000060
:1000A000CB000000CB000000CB000000CB00000024
:1000B000CB000000CB000000CB000000CB00000014
:1000C000FEE7FEE7FEE7FEE7FEE7FEE7002208B5F3
:1000D000094B0A49D3188B4204D209498958043282
:1000E0001960F5E7074B084A934202D2002204C385
:1000F000F9E700F061F8FEE70000001000000010D2
:100100009C0800000000001084020010024B9A6856
:100110009207FBD5D86170470080054038B5074C81
:1001200003115B00051C185BFFF7F0FF0F20284050
:100130004000005BFFF7EAFF38BDC046340800000E
:1001400038B5051C141C081CFFF7E8FF281CFFF736
:10015000E5FF201CFFF7E2FF38BD80200C4B0001BB
:10016000191DCA6F0243CA6701215A6800208A43D9
:100170005A605A680A435A600422064B5A62586011
:10018000B420000518621A601A680A431A607047A2
:100190000080044000800540002210B58C5C835C28
:1001A000002C05D0002B05D0A34203D10132F5E786
:1001B000012000E0002010BD0022F0B5BC4B85B04E
:1001C0001A6100F0DFF9FFF7C8FFE120400200F0FC
:1001D000EFF9B84800F06CFAB74800F04FFAB748AA
:1001E00000F04CFAB64800F049FA0023002401ADB3
:1001F0005C5501330A2BF9D100F033FA0028FBD00B
:1002000000F036FA291C2855AE48FFF7C5FF002834
:1002100002D0062C09DD63E1AB48291CFFF7BCFFC7
:10022000071E04D0012C00DD5AE10134E4E7A748A1
:10023000291CFFF7B1FF061E13D0062C00DD4FE18D
:10024000381CFFF763FF381CFFF760FF802601347E
:100250000020013E011C021CFFF772FF002EF7D1A7
:10026000CAE79B48291CFFF797FF071E51D0301C97
:10027000052C00DD35E100262E5401300A28FAD184
:10028000002400F0EEF90028FBD000F0F1F90D2871
:100290002ED00A282CD0031C303BDBB2092B01D80E
:1002A0002B550134031C413BDBB2052B03D8031C47
:1002B000373B2B550134031C613BDBB2052B02D8C5
:1002C000573828550134062CDBD100235A00A818D2
:1002D000AA5C80494078120189198218CA540133F6
:1002E000032BF3D17E330336FF339E42C8D1002463
:1002F0000020FFF70BFF0020FFF708FF8026754B5B
:10030000013E187859789A78FFF71AFF002EF6D137
:1003100072E77148291CFFF73FFF061E56D0381CB4
:10032000042C00DDDDE000262E5401300A28FAD12D
:10033000002400F096F90028FBD000F099F90D2870
:100340002ED00A282CD0031C303BDBB2092B01D85D
:100350002B550134031C413BDBB2052B03D8031C96
:10036000373B2B550134031C613BDBB2052B02D814
:10037000573828550134062CDBD100235A00A81821
:10038000AA5C54494078120189198218CA54013371
:10039000032BF3D17E330336FF339E42C8D10024B2
:1003A0000020FFF7B3FE0020FFF7B0FE4027494EC4
:1003B000013F30787178B278FFF7C2FEF07831797A
:1003C0007279FFF7BDFE002FF1D115E74348291CD4
:1003D000FFF7E2FE071E60D0301C062C00DD80E037
:1003E00000262E5401300A28FAD1002400F039F9F1
:1003F0000028FBD000F03CF90D282ED00A282CD084
:10040000031C303BDBB2092B01D82B550134031CF4
:10041000413BDBB2052B03D8031C373B2B55013482
:10042000031C613BDBB2052B02D857382855013439
:10043000062CDBD100235A00A818AA5C2549407875
:10044000120189198218CA540133032BF3D17E3368
:100450000336FF339E42C8D100240020FFF756FE2A
:100460000020FFF753FE80261A4B013E187859787A
:100470009A78FFF765FE002EF6D1301CFFF746FE96
:10048000301CFFF743FE80360020013E011C021C99
:10049000FFF756FE002EF7D1AEE6281C00F0EEF86E
:1004A000381C00242C5401300A28FAD1A4E6C04696
:1004B00000000440E02E0000540800006408000022
:1004C0006A0800006D080000760800007A08000045
:1004D00083080000000000108B0800009208000054
:1004E000002000262E5401300A28FAD1002400F002
:1004F000B8F80028FBD000F0BBF80D282DD00A2852
:100500002BD0031C303BDBB2092B01D82B55013417
:10051000031C413BDBB2052B03D8031C373B2B5597
:100520000134031C613BDBB2052B02D85738285538
:100530000134062CDBD100235A00A818AA5C10490C
:100540004078120189198218CA540133032BF3D160
:100550007E330336FF339E42C8D10020FFF7D6FD1D
:100560000020FFF7D3FD064D2C1C631BB34200DBBC
:100570003BE620786178A278FFF7E2FD0334F4E7E8
:10058000000000108021074AD36F0B43D367064B4E
:10059000064AC9391A60FD2252421A61E02252000D
:1005A000995070470480044000C000400400FFFFE1
:1005B000F7B51E4C0122231C082680211C4F9433C2
:1005C00000901A603B1DDE67221DD36FC9010B43EB
:1005D000D3676368174DB34363606368009933431F
:1005E0006360042314482B6000F092F8231CFF2260
:1005F000F033013828621A601868296A1B680130D4
:10060000DB4301930C4B01315843009BF4345943B5
:1006100000F07EF8019B0122181882231B01206044
:10062000AB603E602B6813432B60F7BD0080044035
:1006300000E100E000400640B0710B00024B9A68F8
:100640005207FBD5D86170470040064038B5041CFE
:100650004518AC4204D02078FFF7F0FF0134F8E7EA
:1006600038BD024B9868012318407047004006408F
:10067000014B5869C0B270470040064010B5041CD9
:100680002078002803D00134FFF7D8FFF8E710BD29
:100690000122054BD968114204D0DA60034A13687D
:1006A000013313607047C0460040004080010010D5
:1006B00030B5802480250D4BE400191DCA6F2243FC
:1006C000CA675968A94359605A6880212A435A6009
:1006D0000022074B09061A60064B18601A680A4385
:1006E0001A6001229A60044B1C6030BD00800440F7
:1006F000800100100040004000E100E00022034BB8
:100700001A601A688242FCD37047C046800100100C
:10071000002243088B4274D303098B425FD3030A40
:100720008B4244D3030B8B4228D3030C8B420DD353
:10073000FF22090212BA030C8B4202D312120902E1
:1007400065D0030B8B4219D300E0090AC30B8B421F
:1007500001D3CB03C01A5241830B8B4201D38B03CD
:10076000C01A5241430B8B4201D34B03C01A524172
:10077000030B8B4201D30B03C01A5241C30A8B42B5
:1007800001D3CB02C01A5241830A8B4201D38B02A0
:10079000C01A5241430A8B4201D34B02C01A524144
:1007A000030A8B4201D30B02C01A5241CDD2C309B6
:1007B0008B4201D3CB01C01A524183098B4201D332
:1007C0008B01C01A524143098B4201D34B01C01A1D
:1007D000524103098B4201D30B01C01A5241C30895
:1007E0008B4201D3CB00C01A524183088B4201D304
:1007F0008B00C01A524143088B4201D34B00C01AF0
:100800005241411A00D20146524110467047FFE75B
:1008100001B5002000F00CF802BDC0460029F7D059
:1008200003B5FFF775FF0EBC4243891A1847C0464F
:100830007047C0462409260934093609A409A609C7
:10084000B409B609240D260D340D360DA40DA60DE0
:10085000B40DB60D49636869676F4C616D702056C1
:1008600065722E00302E382E34000A0D004C45449F
:100870004C414D5020004C4C20004C4C434C4541C9
:100880005220004C4C4D4F4E4F20004C4C54574F73
:0C08900020004C4C464C41534820000016
:04000003000000CD2C
:00000001FF
